:020000040000FA
:10000000987E0020B1000000B9000000D10000007F
:1000100000000000000000000000000000000000E0
:100020000000000000000000000000003D0800008B
:100030000000000000000000910600003F080000E2
:10004000C3000000C3000000C3000000410800001E
:1000500061080000C3000000C3000000C3000000EE
:100060001D090000C3000000C3000000C300000021
:10007000390A0000C3000000C3000000C3000000F4
:1000800009350000CD000000CF000000C3000000D3
:1000900000000000C3000000C3000000C300000017
:1000A0000000000000000000C3000000C3000000CA
:1000B0000448804704480047FEE7FEE7FEE7FEE706
:1000C000FEE7FEE71D7100009511000070477047C4
:1000D00001A008F09FFDFEE7486172644661756CFF
:1000E000745F48616E646C657200000078B40A4AFF
:1000F0000025538811881C464B43491E6A461180CF
:10010000641E548005490246CC6800992846A446DE
:1001100001B070BC604700003800002040110000B2
:1001200038B5084C6D46638821881A464B43491EF2
:100130002980521E6A800020A288009900F018F9D8
:1001400038BD00003800002010B5282000F060FA0B
:1001500010BD10B5292000F05BFA10BD1CB56A4631
:10016000108051809080D18003480123C28801997A
:10017000009800F0FDF81CBD380000207CB51C463E
:100180006D462880131A6980AA80661AEC8005489B
:100190005B1C761CC28873430199009800F0E8F854
:1001A0007CBD000038000020FFB581B00E466846D7
:1001B000C188581E1D46081883B2684614468088B8
:1001C000124F521E8218FF6892B2B8470F488168DA
:1001D0002C2088470E48102787606C43B0006400CD
:1001E000002804DA2146304600F008FC0AE00948FD
:1001F0000068351800F01CFD2146284600F0A4FBDD
:1002000000F0AEFD0248476005B0F0BD1C110000D3
:1002100000000240484A0100FFB585B06A460C461E
:10022000D18B508C04900818401E83B2908B168C92
:10023000494D8219521EEF6892B2B847A9682C2026
:10024000884746486A468188059F9180C088D0804B
:100250004349102088600020FF217200413105468B
:10026000029200908E425AD82146694317E0450712
:1002700042036D0F0723120C5B1BBA188A5CDA402D
:10028000D207D20F04D0009B834201D283B20093E5
:10029000530001AAD35A4500324A401C53538642A8
:1002A000E5D8012538E003212F4800F0A7FAE90737
:1002B000C90F0120401A03912C49029B4843294948
:1002C00042180321284800F03DFA214669438C4634
:1002D000264A0399234B00205143C9188E4618E043
:1002E00041030A0C4107490F07235B1A6146BA18FC
:1002F0008A5CDA40D207D20F04D0009B834201D23D
:1003000083B20093530001AAD25A43007146CA52E5
:10031000401C8642E4D86D1C0498A842C3D8124CF5
:100320000321204600F06AFAE907C90F0120401AAC
:100330000E49029B48430B4942180321204600F016
:1003400001FA0321204600F059FA054910204860BF
:10035000009809B0F0BD00001C110000380000201A
:10036000000002401C12002000100140D4070000D1
:10037000FFB581B06846174E1F461446438902896F
:10038000C188F5688088A847B1682C20884700207C
:100390001149FF2241324300401CCC529042FAD313
:1003A0000E4E1025B5607F00002F10D0FF24FD34C5
:1003B000A74200D23C462346074A0321084800F0E2
:1003C000C1F90321064800F019FA3F1BECE77560FC
:1003D00005B0F0BD1C1100001C12002000000240FE
:1003E00000100140FFB585B005466A460291508F66
:1003F0000190108F039040000490D18B578C168C85
:10040000C819401E83B2908B414C8219521EE46879
:1004100092B2A0473E4881682C2088473D49102071
:10042000886000207100AA0004460091002A10DABA
:1004300001240BE00198029900194843400041193A
:1004400004980818009900F0D9FA641CA742F1D862
:1004500059E0FF2141318E423FD80199029A091992
:1004600051434900491907E0039A44001218520009
:100470008B5A294A401C13538642F5D801242AE09E
:100480000321264800F0BAF9E107C90F0120401AFC
:1004900004912349009B48431F49421803211F48E8
:1004A00000F050F90199029A09195143490049197C
:1004B0008C461B4A0499184B00205143CA1807E088
:1004C000039B61461B185B00CB5A41005352401CF2
:1004D0008642F5D8641CA742D2D8104D0321284685
:1004E00000F08CF9E107C90F0120401A0C49009B6C
:1004F0004843094942180321284600F023F9032103
:10050000284600F07BF903491020486009B0F0BD8F
:100510001C110000000002401C12002000100140CD
:10052000D4070000002070470020704770B50E4CC3
:10053000012825880BD002280BD0032811D00428CD
:1005400004D1C821362000F05AF8258070BD6821FA
:1005500000E0A821362000F052F8608820806580F5
:1005600070BD0821EEE7000038000020F8B5144601
:100570000546001B86B21F46332000F049F8280AC2
:1005800000F066F8E8B200F063F8300A00F060F8B6
:10059000F0B200F05DF8380A00F05AF8F8B200F056
:1005A00057F8372000F034F8200A00F051F8E0B294
:1005B00000F04EF8F8BDF8B507461C4615460E4645
:1005C0002A2000F025F8380A00F042F8F8B200F0CE
:1005D0003FF8280A00F03CF8E8B200F039F82B2088
:1005E00000F016F8300A00F033F8F0B200F030F8FE
:1005F000200A00F02DF8E0B200F02AF8F8BD10B59E
:100600000C4600F005F8204600F022F810BD00006E
:10061000F8B501240A4DE402AC600A4F1026BE6012
:100620000949012308700A460321084800F08AF8A6
:100630000321064800F0E2F86C607E60F8BD00001F
:100640000000034000000240340000200010014080
:1006500070B501210A4AC90251600A4D1024AC60EC
:1006600009490A4E08700A4601230321304600F06A
:1006700069F80321304600F0C1F86C6070BD0000DD
:100680000000034000000240340000200010014040
:100690007047000070B5032902D90120C04370BD26
:1006A000940702D00220C04370BD0124640344615A
:1006B0000367E4034460A4104460E40044605824E9
:1006C0001A4D4C4364190646194D40362660A26007
:1006D000A5619A089B0700D0521CE26100222261AA
:1006E0002264144A904204D19920C00160648020A1
:1006F0000EE0114A904204D1BB20C001606460202A
:1007000006E00E4A904204D1FF20C0016064402000
:1007100020640B4B012098610C4608340246A2402D
:10072000884002431A62002070BD000000000540AE
:10073000240420000000014000100140002001407E
:100740008003054070B5032902D90120C04370BD64
:10075000234C0026A34205D901265D08DB0702D001
:100760006D1C00E01D4601235B0343610567DB034D
:1007700043609B108360DB0043605823194C4B435C
:100780001C193301184E22609B1902464032A260A8
:10079000A361E56100222261144A904204D1112034
:1007A00080026064E0200EE0114A904204D155209E
:1007B00000026064C02006E00E4A904204D1772017
:1007C00000026064A02020640B4B012098610C465D
:1007D00008340246A240884002431A62002070BDDD
:1007E000FF0100000000054000491000000001402A
:1007F00000100140002001408003054030B5044650
:100800000020032901D9801E30BD0122D2050A4DE6
:1008100001238B40296A194202D1216DC90702D0F8
:10082000521EF7D201E0002A01DC0020C043012162
:100830004903A16130BD0000800305407047704747
:1008400010B505490020088200F050FA03480168FD
:10085000491C016010BD000000C00040580000208D
:1008600003490020088203480178491C0170704741
:1008700000C800402C00002070B588B002A807F026
:10088000AFFD05A807F0B4F9012080074169821186
:100890001143416141690822114341610425032646
:1008A000694600950E7100244C71194804F0F8F85F
:1008B0002806009069460E714C71164804F0F0F855
:1008C000154E304607F006FB3B20039069460C812D
:1008D0000C824C8102A9304607F008FD0A231A4613
:1008E0000321304606F07EFF05A807F081F969462E
:1008F0008D820620888305A9304607F073F80648E4
:10090000203084800121304606F0D4FE08B070BD4E
:10091000000002400000034000A8004010B5084C51
:100920000121204607F002F8002807D000F074F9F2
:10093000044948600121204606F076FE10BD000003
:1009400000A800402C000020F8B50E46274F0025D7
:1009500001210246C90638467960022100F09AF961
:10096000FF20FD30864201D3044600E03446204A91
:10097000234602213846FFF78DFE1D4F361B02210C
:100980001A48FFF73BFF6D1C012D00D900251948BF
:1009900023466843C21902211448FFF77BFE012059
:1009A0001449401B48432346134CC21903212046D7
:1009B000FFF7C8FE03212046FFF720FF002E08D0D6
:1009C000FF24FD34A64201D3361BD8E73446002667
:1009D000D5E703210848FFF711FF044C0221204608
:1009E000FFF70CFFE002A0600020F8BD000001400E
:1009F0001C120020D407000000100140F8B5FF27AA
:100A00000D460646FD37002D11D0BD4201D33C46B0
:100A100000E02C462346324603210648FFF792FEAB
:100A200003210448FFF7EAFE2D1B3619EBE70020EF
:100A3000F8BD00000010014070B50F4C20680F4D4C
:100A4000C00609D500262069296AC0B28847761CED
:100A50000D2EF8DB1020A0602068400604D470BD85
:100A60002069296AC0B28847206AC001F8D5A86AFF
:100A700080474020A06070BD4060004060110000D1
:100A8000F3B51120224D81B040060E46A8606814CF
:100A9000686100201F4A01461154401C0828FBDBF6
:100AA00028680124E40620432860082219492846C2
:100AB00000F0D3F92868A04328602869C008C00066
:100AC0002861154C2068800880002060E06880085C
:100AD0008000E060284600F050FA002706E0019808
:100AE00039030918284600F032FA7F1CB742F6D3C2
:100AF000206880088000401C2060E068800880003A
:100B0000401CE06001204003A86100036860FEBD56
:100B1000000001405000002080100040F8B50D4654
:100B20000646112128484906144681604114416156
:100B30000021264B0A465A54491C0829FBDB224F48
:100B40003868F9020843386008222049384600F026
:100B500084F93868F902884338603869C008C000F1
:100B600038611B480168890889000160C1688908EB
:100B70008900C160384600F000FAE9B2B815471A9A
:100B8000BC4200D8A7B23B462A4631460E4800F088
:100B900057FABC4207D0F619ED19E41BFF270137BD
:100BA000BC42F0D8EEE70A48016889088900491C70
:100BB0000160C16889088900491CC160411402486C
:100BC000816141024160F8BD0000014050000020F9
:100BD000801000400020054A01461154401CFF28A7
:100BE000FBD30348017041607047000004220020DD
:100BF000640000200020034902460A54401C40289B
:100C0000FBD37047C421002001B5009801E0401ECD
:100C100000900028FBD108BD10B5044806F04CFE3A
:100C2000C10F0818401000B210BD000000A800401D
:100C300030B51120144C4006A060601460610020A3
:100C4000124902460A54401C0828FBD30125ED0630
:100C5000656008230D4A02212046FFF773FD02213B
:100C60002046FFF7CBFDA5602069C008C0002061C9
:100C700007480168890889000160C16889088900FE
:100C8000C160002030BD0000000001405C00002079
:100C900080100040F0B5104D074603201446287020
:100CA0000E4601232A463846FFF74CFD31463846AA
:100CB000FFF7A4FD200C2870200A6870AC70032395
:100CC0002A4631463846FFF73DFD31463846FFF7A4
:100CD00095FD0020F0BD00005C00002002490A6A7A
:100CE0001201FCD50861704740600040024801686D
:100CF000491C016070470000AC0000200649054B0C
:100D00004A689854521C4A60FF2A01D30020486068
:100D100070470000042200206400002001490120E7
:100D2000087070476400002010B5FF2902D3FF212E
:100D3000002201E0002203E0034C835CA354521C18
:100D40008A42F9D310BD00000422002010B5002310
:100D500002E0C45CCC545B1C9342FAD310BD00008B
:100D60000848016889088900491C0160C168890830
:100D70008900491CC16041140348816141024160FE
:100D8000002070478010004000000140004870477C
:100D900004220020014840687047000064000020E1
:100DA000014800787047000064000020FF20704771
:100DB00000487047C4210020402070470148006867
:100DC00070470000AC0000200246881A914200D211
:100DD000401E7047F7B5002483B015460E469708AD
:100DE00015E0042001908006009080100290694672
:100DF000039800F080F80121039800F0A3F801287F
:100E0000F9D00398006CA100641C7050A4B2A742F2
:100E1000E7D8AD07AD0F1DD001200007009080106E
:100E2000029001956946039800F065F80121039846
:100E300000F088F80128F9D00398006CA1007054E4
:100E4000012D02D9020A8B195A70022D02D9000C09
:100E500089198870002006B0F0BDF7B5002483B072
:100E60001646054697081BE0042001908006009076
:100E7000002002906946284600F03DF80498A10041
:100E8000405828642021284600F05CF80028F9D05A
:100E90000121284600F056F80128F9D0641CA4B2BC
:100EA000A742E1D8B607B60F22D001200007009074
:100EB00000202F460290403701966946284600F0F0
:100EC0001AF80020A10005E00B18049A401CD25C1F
:100ED0003A7080B2B042F7D32021284600F032F8B1
:100EE0000028F9D00121284600F02CF80128F9D07B
:100EF000002006B0F0BD10B50268520102D50123F2
:100F00009B0600E000234A68026701248A686407A0
:100F10009A4203680BD109681B0104D511430522CD
:100F2000D206114301E011430AE0016010BD0968D7
:100F30001B0102D511430122D20611430160016851
:100F40002143F2E7006D084000D00120704770B5E2
:100F50000E46044600F098F820680125ED06284367
:100F6000206032462021204600F05AF82068A8432D
:100F70002060204600F0BAF870BD1CB501216A4619
:100F800004461171117000F07FF8204600F010F84F
:100F90006A461071204600F027F86A4610701179F1
:100FA000C32012780140204600F082F81CBD0000EA
:100FB00070B5044600680125ED0628432060094EFF
:100FC00005203070012231462046FFF746FF0422FB
:100FD00031462046FFF7FEFE2068A84320603078A7
:100FE00070BD00004800002070B50446006801256F
:100FF000ED0628432060094E35203070012231462D
:101000002046FFF72AFF042231462046FFF7E2FE82
:101010002068A8432060307870BD000048000020A0
:1010200000B5064B1970110C5970110A9970DA70DD
:1010300004221946FFF711FF00BD00004800002000
:10104000FFB581B00F460446012069461646087078
:10105000204600F019F820680125ED06284320609D
:10106000324602212046FFF7DBFF39462046049A2C
:10107000FFF7F3FE2068A8432060204600F036F812
:10108000049805B0F0BD000030B5044600680125A5
:10109000ED062843206005490620087001222046FD
:1010A000FFF7DBFE2068A843206030BD4800002029
:1010B000F0B516460F460446FFF7E6FF2068012507
:1010C000ED062843206008480121017047708670B2
:1010D000014603222046FFF7C0FE2068A843206097
:1010E000204600F003F8F0BD480000203CB505465E
:1010F0000120694608717D24E40009E02846FFF7D5
:1011000057FF6946087121460094491E0091FCD1A1
:1011100068460079C007F1D13CBD000051060000CF
:101120002905000011060000B70500002D0500008C
:1011300053010000490100006D0500009D6D000095
:101140005D010000250500007D0100007103000025
:10115000A9010000E50300001902000021010000C0
:10116000F9AF000009B00000B90D0000B10D00009A
:10117000AD0D00008D0D0000950D0000A10D0000CB
:10118000FD0C0000290D00001D0D0000F50B0000F6
:10119000D50B00000348854600F006F800480047DC
:1011A000271A0000987E0020064C0125064E05E017
:1011B000E36807CC2B430C3C98471034B442F7D378
:1011C000FFF7ECFFEC1100000C12000002E008C871
:1011D000121F08C1002AFAD170477047002001E0B1
:1011E00001C1121F002AFBD170470000D0FA010094
:1011F0000000002064020000D019000094FB0100F0
:1012000064020020347C0000DC11000030B50B4685
:10121000014600202022012409E00D46D5409D42D0
:1012200005D31D469540491B254695404019154656
:10123000521E002DF1DC30BD70B50024254600287B
:1012400001DA01244042002901DA01254942FFF771
:10125000DDFFAC4200D04042002C00D0494270BDBE
:1012600010B5441A0346944209D28318891803E042
:10127000491E0C785B1E1C70521EF9D210BD0C4624
:101280000443A40703D009E010C9121F10C3042AA5
:10129000FAD203E00C781C70491C5B1C521EF9D278
:1012A00010BDD2B201E00270401C491EFBD2704753
:1012B0000022F6E710B513460A4604461946FFF722
:1012C000F0FF204610BD421C0178401C0029FBD1D4
:1012D000801A70470321001D401E037812021A4332
:1012E000491EF9D510467047034603220870000ACC
:1012F000491C521EFAD518467047F8B502464A40B6
:10130000D40F42004B0052085B089A4202D20246B8
:10131000084611464A0023D0C30D4A00DDB2120E22
:10132000AD1A202D35DA49020126490AF6058A1937
:10133000002C00D0524220214F1B1146B9402A41B7
:101340001018C20D9A4221D0002C17D0012D08DCB4
:10135000DA05801AD20F8019D207DBB200F0A0FAAA
:10136000F8BDDA05801A012340001B06C01880185A
:101370005A428018CA0F1043490007E04908C207C3
:101380001143DA05801A80194008801800F080FAAD
:10139000F8BD61000122511A001BF7E70122D207B4
:1013A0005140AAE70122D2075040A6E7024670B595
:1013B0004A40D30FDB0740002DD04A002AD0010E4F
:1013C000140E000212020919400A520A8418E5019B
:1013D00004465443000A120A2E045043A419421929
:1013E000200CC543AA18120C0125AD03521C52193A
:1013F00012047F39240400D0521C104301D4400051
:10140000491EC2B20C06C0092018401C4008802AA0
:1014100002D003E0002070BD40084000002900DA3F
:101420000020184370BD70B502464A40D50F4000F9
:101430004A00ED0740085208002814D0002A12D0B4
:10144000C40DD30D41020120C0055202490A520ABF
:10145000E41A091812187D34914201D3641C00E08B
:101460004900002C01DA002070BD0023914201D315
:10147000891A0343400849000028F7D100290AD0FF
:10148000914202D10121C90705E0914201D2012117
:1014900001E00121C943E005C018401900F0F8F946
:1014A00070BD0000F0B507460846584087B0C00F31
:1014B000049048000E46590040084908BC1A88416B
:1014C00005D2384631461E4617460B46024658009E
:1014D000400810434CD0300D039040055900400D9A
:1014E000490D0590401A0290402872DA1803012134
:1014F000000B09050843019004980092002805D0CC
:1015000001995242002088410092019002984021A6
:101510000A1A0199009800F087F905460C466B46B7
:1015200007CB00F0A2F9C0197141039A0E0D0023F8
:10153000D71756401A467A40164344D0049A002AD8
:101540002DD0029A012A039A15DC1205C01A914186
:1015500001263605001C7141D20F059ED20700936B
:10156000019202962A46234600F0E0F907B0F0BD4A
:1015700038463146FAE71605224A0F46B218C01A15
:10158000B74101210905001C4F4100187F41114658
:1015900018187941E20F10436D19644113E0E20716
:1015A0006D0815436408C2071443039A0126120507
:1015B000C01A91413605001C7141CE0740083043E6
:1015C0004908C01851412A46234600F0A2F9CDE748
:1015D000FFE7049801224000C117121A00238B4133
:1015E00004983146C417381AA141EEE730B40124FB
:1015F000E407634030BC55E730B40124E4076140A0
:1016000030BC4FE70000E0FF70B54B005B080343C0
:101610000BD04B005C0D002633466542B341D41716
:10162000AD1AA34102DB0020014670BD120530183F
:10163000514170BDC217C10F504010B54018CA07C4
:101640009623002100F02CF910BD10B5002296233E
:10165000114600F025F910BD0EB5C217C10F50405C
:10166000CA0740180021054B0293019200910A46D7
:101670000B4600F05BF903B000BD0000330400002E
:101680000EB505490291002100910A460B460191D1
:1016900000F04CF903B000BD33040000C20F41005C
:1016A00040020123400ADB05D207090EC0187F293A
:1016B00001DA00207047962903DC9623591AC840A6
:1016C00001E096398840002AF4D04042704741003A
:1016D00040020122400AD205090E80187F2901DA52
:1016E00000207047962903DC9622511AC8407047A3
:1016F000963988407047000070B5CD0F4A00090345
:101700000123090B1B0519430B4BED070024520D58
:101710009A4201DA002070BD074B34339A4203DC51
:101720009A1A00F091F802E00449511888402C43BD
:10173000F1D0404270BD0000FF030000CDFBFFFF71
:10174000C20FD207400040080BD0C10D0723DB01B8
:10175000C91840020905400A1143C2084007114355
:101760007047002001467047CB0FDB07490010B5DA
:10177000490802460A4307D00A0D07240903E40179
:10178000090B121B002A01DC002010BDC900440F08
:101790000C43C100E018D205801800F079F810BDA4
:1017A0000122D207002800DB101A002900DB511AA1
:1017B000814270470122D207002800DB101A00295D
:1017C00000DB511A88427047F0B51FB4064600206E
:1017D00082B005464024019100901BE00199224609
:1017E0000F46304600F030F8049A059B801A994164
:1017F00010D310461946224600F016F8361A8F41CB
:101800000197224601200021009F00F00DF83818B2
:101810004D4100902046641E0028DFDC019B0098AB
:101820002946324607B0F0BD10B5202A04DB014638
:10183000203A9140002010BD914020239C1A03467D
:10184000E3401943904010BD10B5202A04DB084640
:10185000203AD040002110BD0B46D340D040202478
:10186000A21A91400843194610BD10B5202A06DB84
:10187000CB170846203A1041C1170B4306E00B4630
:101880001341D0402024A21A91400843194610BDAC
:10189000002904DA401C490001D14008400070478B
:1018A00070B40024050C05D11024000402D10029D5
:1018B00021D01124050E01D100020834050F01D1F9
:1018C0000001241D850F01D18000A41C002801DB2C
:1018D0004000641C002908D020252E1B0D46F54031
:1018E000A14000D001212943084301061B1B000A27
:1018F000DB1D02D5002070BC7047DB05181880186E
:101900000029F8DA401C4900F5D170BC40084000BD
:10191000704710B5002B08DA0024401C6141921872
:101920005B411A4301D14008400010BDF0B51FB41F
:1019300082B005460C0003D0084607F08FF902E09C
:1019400007F08CF920300246009021462846FFF728
:101950006BFF049B059A04460F4618431143084346
:1019600014D0184610431BD0009840210A1A18467C
:101970000599FFF769FF05460E46009A05990498F8
:10198000FFF752FF084305D0012004E02046394606
:1019900007B0F0BD0020C11705430E432C43374369
:1019A00000990E986305401A7905E40A00220C4359
:1019B000FD0A0A3002D500200146E9E701051019A9
:1019C00069410C9C0D9D00196941FFF7A2FFDFE7FB
:1019D00070B58C180578401C6B075B0F01D103783C
:1019E000401C2A1106D10278401C03E006780E70D4
:1019F000401C491C5B1EF9D12B0705D40023521E45
:101A00000DD40B70491CFAE70378401CCB1A921CCA
:101A100003E01D780D70491C5B1C521EF9D5A142D4
:101A2000D8D3002070BD10B508F02CFA09F01CFACC
:101A300010BD000070B5154B0D1A1A88541EA54232
:101A400002DD411E511809B2814200DA0146DC680C
:101A5000944204D20EA007F057FE002070BD164C31
:101A60009D68A5602161E06020460021243001804E
:101A7000418021884A43521E82805A884A43521E1E
:101A8000C28000F0C9F8012070BD000038000020BD
:101A9000546865204C43442063616368652070721C
:101AA0006F766964656420697320746F6F20736D4D
:101AB000616C6C0D0A0000000C02002001463039F8
:101AC000092901D8C8B2704701464139192902D8FD
:101AD0003738C0B2704720280FD024280FD02528CF
:101AE0000FD02A280FD02B280FD02D280FD02E282A
:101AF0000FD02F280FD02C2070472420704725208E
:101B000070472620704727207047282070472920DB
:101B100070472A2070472B20704700001CB500201A
:101B20006946009088806A4601A90D4807F076FE54
:101B3000009A002A12D06846808800280ED0002122
:101B400004E0535C002B03D0491C89B28142F8D3D6
:101B5000002903D00248801E07F0B2FD00201CBD02
:101B6000038000001CB500206946009088806A460A
:101B700001A90D4807F052FE009A002A12D06846CB
:101B8000808800280ED0002104E0535C002B03D095
:101B9000491C89B28142F8D3002903D00248C01EF3
:101BA00007F08EFD00201CBD048000001CB5002045
:101BB0006946009088806A4601A90D4807F02EFE0C
:101BC000009A002A12D06846808800280ED0002192
:101BD00004E0535C002B03D0491C89B28142F8D346
:101BE000002903D00248001F07F06AFD00201CBD39
:101BF0000580000010B54943541A0368914202DB86
:101C00000021016010BD5B1C19465943A142FADB5B
:101C10005B1E036010BD000010B5084C2169E06830
:101C20000A1A07480021C368521CA0689847054952
:101C30006161880CE161A06110BD00000C02002010
:101C40000C4A010001C0FFFFF8B5060016D00C4D8C
:101C500034680EE02068002803D06968002900D0AD
:101C6000884768686768002802D001462046884790
:101C70003C46002CEED1002030607060F8BD0000C2
:101C80000C4A0100F8B50F46114900250978297062
:101C900006462C4609E0305D29194870325D214620
:101CA0000CA006F0B7FF641CE4B2BC42F3D30848B2
:101CB000E91942784A7082788A70C278CA700079CD
:101CC00008710848791D426828469047F8BD000011
:101CD0008000002073646174615B25645D203D2099
:101CE00025780A0060110000F8B500200346009036
:101CF000D548C1692CE00022081F864625E035251D
:101D00001C4601206C438446D04D501C651911249B
:101D100011E0AE5C264201D1012700E000272E5CD5
:101D2000264201D1012600E00026B74205D16646D1
:101D3000761CB446401C8842EBDB6246052A03DB76
:101D4000009CA218921E009202467245D7DB5B1CD3
:101D50008B42D0DB00222EE00024081F844627E0BF
:101D6000601C35256C43B94D01236419A646112426
:101D700015E07546AD5C254201D1012700E0002742
:101D8000352605467543B14EAD19AD5C254201D1EE
:101D9000012500E00025AF4203D1401C5B1C8842B6
:101DA000E7DB052B03DB009CE3189B1E0093044636
:101DB0006445D5DB521C8A42CEDB00244B1E36E044
:101DC000002031E0352225465543A04AAE18355C47
:101DD000112215402FD000273618B4462036B646BB
:101DE000767D164201D1012600E00026B7421AD1C5
:101DF000002D22D0002667467F78174201D10127A7
:101E000000E00027BE420ED1002D18D000267546F6
:101E1000AD7D154201D1012200E00022964202D19F
:101E2000009AD21C0092401C9842CBDB641C9C425E
:101E3000C6DB002267E00127CEE70126DBE70126AB
:101E4000E5E700208D1F5BE0002809D035237F4C9B
:101E500053431B191B18203BDC7F11231C424ED11E
:101E6000352314465C43794BE418265C11231E424B
:101E700045D0241866781E4241D1A6781E423ED035
:101E8000E6781E423BD026791E4238D066791E4243
:101E900035D1A6791E4232D0CE1FB04202D0E679AB
:101EA0001E422CD1022804DB2646203EB67F1E426D
:101EB0000DD1032804DB2646203E767F1E4206D144
:101EC000042819DB2646203E367F1E4214D00E46DB
:101ED000083EB04202DA267A1E4210D10E46093E72
:101EE000B04202DA667A1E4209D10E460A3EB0427C
:101EF00002DAA47A1C4202D1009B28330093401CD2
:101F0000A842A1DB521C8A429BDB002272E0002027
:101F10008C1F6CE0002809D035234C4D43435B19DE
:101F20009B18403BDD7A11231D425FD135230546C6
:101F30005D43464BEB189E5C11252E4256D09B18F4
:101F40003526F65C2E4251D16A26F65C2E424DD0E3
:101F50009F26F65C2E4249D0D426F65C2E4245D010
:101F6000FF260A36F65C2E4240D1FF263F36F65C4D
:101F70002E423BD0CE1FB04204D0FF267436F65C12
:101F80002E4233D102282EDB1E46803EB67D2E42E5
:101F90000DD1032827DB1E46A03E76782E4206D1BF
:101FA000042820DB1E46E03E367B2E421BD00E4628
:101FB000083EB04204DAFF26A936F65C2E4215D15F
:101FC0000E46093EB04204DAFF26DE36F65C2E42AB
:101FD0000CD10E460A3EB04205DAFF33FF3302331E
:101FE0009B7C2B4202D1009B28330093401CA042D3
:101FF00090DB521C8A428ADB00200246134F1124D8
:102000000DE03526154600237543ED1904E0EE5C1E
:10201000264200D1401C5B1C8B42F8DB521C0B4655
:102020008A42EEDB642259435043FFF705F932211F
:10203000081A00D540420521FFF7FEF80A2148435F
:1020400000994018F8BD0000D4000020982A002014
:10205000F3B581B03422BE49BE48FFF701F9BD4D4A
:1020600001986871000AA87102982C46BA30009055
:10207000E071000A207222276F720020A872E772B6
:102080002073B548B64E0088E075000A2076B34844
:1020900000886876000AA8763088E076000A207703
:1020A00030886877000AA877204607F027FBAD4AFA
:1020B000AD49012007F014FDACA20521AA4807F0A4
:1020C0006DFDA349342234312046FFF7C9F8019849
:1020D00027306871000AA8710098E071000A207228
:1020E0006F72380AA872E772380A20739A4800881B
:1020F000E075000A2076994800886876000AA8767C
:102100003088E076000A207730886877000AA87760
:10211000204607F0F3FA9449964A491C012007F03B
:10212000DFFC914894A20521401C07F037FD884947
:10213000342268312046FFF793F801984E306871D9
:10214000000AA8710098E071000A20726F72380AC4
:10215000A872E772380A20737F480088E075000A89
:1021600020767E4800886876000AA8763088E07677
:10217000000A207730886877000AA877204607F0A1
:10218000BDFA79497E4A891C012007F0A9FC7648EE
:102190007CA20421801C07F001FD6D4934229C3192
:1021A0002046FFF75DF8019875306871000AA87144
:1021B0000098E071000A20726F72380AA872E77204
:1021C000380A207364480088E075000A2076634866
:1021D00000886876000AA8763088E076000A2077C2
:1021E00030886877000AA877204607F087FA5E49AA
:1021F000654AC91C012007F073FC5B4863A20321F8
:10220000C01C07F0CBFC342261492046FFF728F8B8
:1022100001989C3000906871000AA87102984E30B5
:10222000E071000A20726F72380AA872E772380AE9
:10223000207349480088E075000A207647480088E6
:102240006876000AA8763088E076000A2077308821
:102250006877000AA877204607F050FA42494D4AAD
:10226000891D012007F03CFC3F484BA20521801D41
:1022700007F094FC4649342234392046FEF7F0FF3B
:1022800000986871000AA87102987230E071000A23
:1022900020726F72380AA872E772380A20732E48CB
:1022A0000088E075000A20762C4800886876000ACD
:1022B000A8763088E076000A207730886877000AB0
:1022C000A877204607F01AFA2749354A491D012008
:1022D00007F006FC244833A20521401D07F05EFCF0
:1022E0002B49342268392046FEF7BAFF00986871FE
:1022F000000AA87102989630E071000A20726F728D
:10230000380AA8724620E072002020731248008824
:10231000E075000A2076114800886876000AA876E1
:102320003088E076000A207730886877000AA8773E
:10233000204607F0E3F90C4C1C4A241D21460120DD
:1023400007F0CEFB1AA20521204607F027FCFEBDB0
:10235000DA9A0100D63900205A4A0100564A010093
:10236000584A01003DAA000020800000B7FBBAC512
:1023700000000000BDA90000CAFDD7D60000000083
:1023800011AA00005370610059AA0000D6D00000C5
:10239000129C010051A90000C9BEB3FD000000005D
:1023A00019A90000B7B5BBD800000000D9A90000EA
:1023B000C8B7B6A800000000F3B50E4681B03422BD
:1023C00054495548FEF74CFF0198534D903000900A
:1023D0006871000AA87130465A302C46E071000A34
:1023E00020722A2068720020A8722A20E072002041
:1023F00020734A484B4F0088E075000A2076484811
:1024000000886876000AA8763888E076000A207787
:1024100038886877000AA877204607F06FF9424AA3
:102420004249012007F05CFB41A205213F4807F02B
:10243000B5FB3849342234312046FEF711FF0098AD
:102440006871000AA87130468630E071000A207277
:102450002A2068720020A8725620E07200202073A3
:102460002E480088E075000A20762D48008868769E
:10247000000AA8763888E076000A207738886877DE
:10248000000AA877204607F039F928492A4A491C4A
:10249000012007F025FB254828A20521401C07F054
:1024A0007DFB1C49342234392046FEF7D9FE0198C1
:1024B000B23630306871000AA871E671300A2072B5
:1024C0005A2068720020A8722A20E072002020732F
:1024D00012480088E075000A207611480088687666
:1024E000000AA8763888E076000A2077388868776E
:1024F000000AA877204607F001F90C4C114A641E27
:102500002146012007F0ECFA0FA20521204607F032
:1025100045FBFEBD0E9F0100623A00205A4A0100B1
:10252000564A0100584A010035A9000025800000E4
:10253000B7B5BBD800000000A9A90000C9BEB3FD13
:1025400000000000F5A90000C8B7B6A80000000010
:10255000F3B587B03422FE49FE48FEF781FEFD4DFB
:1025600007986871000AA87108982C464E300290AE
:10257000E071000A207222266E720020A872E672B4
:102580002073F548F64F0088E075000A2076F3487E
:1025900000886876000AA8763888E076000A2077F6
:1025A00038886877000AA877204607F0A7F8ED4A30
:1025B000ED49012007F094FAE549342234312046F0
:1025C000FEF74EFE0798273005906871000AA87143
:1025D0000298E071000A20726E72300AA872E672E8
:1025E000300A2073DC480088E075000A2076DB485A
:1025F00000886876000AA8763888E076000A207796
:1026000038886877000AA877204607F077F8D64917
:10261000D64A491C012007F063FACD4934226831BB
:102620002046FEF71DFE07984E3004906871000AA0
:10263000A8710298E071000A20726E72300AA872C6
:10264000E672300A2073C4480088E075000A2076DC
:10265000C24800886876000AA8763888E076000AC2
:10266000207738886877000AA877204607F046F870
:10267000BD49BF4A891C012007F032FAB44934220F
:102680009C312046FEF7ECFD079875300390687189
:10269000000AA8710298E071000A20726E72300A76
:1026A000A872E672300A2073AB480088E075000A11
:1026B0002076AA4800886876000AA8763888E076EE
:1026C000000A207738886877000AA877204607F044
:1026D00015F8A549A74AC91C012007F001FA9C4931
:1026E0003422D0312046FEF7BBFD07986871000AFE
:1026F000A871089872300290E071000A20726E7220
:10270000300AA872E672300A207393480088E07598
:10271000000A2076914800886876000AA8763888F2
:10272000E076000A207738886877000AA877204684
:1027300006F0E4FF8C49904A091D012007F0D0F90A
:1027400034228E492046FEF78BFD05986871000AF9
:10275000A8710298E071000A20726E72300AA872A5
:10276000E672300A20737C480088E075000A207603
:102770007A4800886876000AA8763888E076000AE9
:10278000207738886877000AA877204606F0B6FFD9
:1027900075497B4A491D012007F0A2F97749342287
:1027A00034312046FEF75CFD04986871000AA87178
:1027B0000298E071000A20726E72300AA872E67206
:1027C000300A207364480088E075000A2076634868
:1027D00000886876000AA8763888E076000A2077B4
:1027E00038886877000AA877204606F087FF5E4998
:1027F000644A891D012007F073F960493422683169
:102800002046FEF72DFD03986871000AA871029812
:10281000E071000A20726E72300AA872E672300A05
:1028200020734D480088E075000A20764B480088E8
:102830006876000AA8763888E076000A207738881B
:102840006877000AA877204606F058FF46494E4AA6
:10285000C91D012007F044F9484934229C31204623
:10286000FEF7FEFC07986871000AA8710898963078
:102870000290E071000A20726E72300AA872E6724D
:10288000300A207334480088E075000A2076334807
:1028900000886876000AA8763888E076000A2077F3
:1028A00038886877000AA877204606F027FF2E4967
:1028B000364A0831012007F013F930493422D0316B
:1028C0002046FEF7CDFC05986871000AA8710298B1
:1028D000E071000A20726E72300AA872E672300A45
:1028E00020731D480088E075000A20761B48008888
:1028F0006876000AA8763888E076000A207738885B
:102900006877000AA877204606F0F8FE1649204AA4
:102910000931012007F0E4F834221E492046FEF771
:102920009FFC04986871000AA8710298E071000A7F
:1029300020726E72300AA872E672300A207306485E
:102940000088E075000A207604480088687623E055
:102950006A980100D63900205A4A0100564A0100FF
:10296000584A0100CD9E000008800000759F0000BD
:1029700071A000006DA1000069A200006E99010025
:1029800009A3000005A4000001A50000FDA50000AA
:102990009DA60000729A0100000AA8763888E076A9
:1029A000000A207738886877000AA877204606F062
:1029B000A5FE1A4A1A49012007F092F83422194953
:1029C0002046FEF74DFC03986871000AA871029832
:1029D000E071000A20726E72300AA872E672300A44
:1029E000207311480088E075000A20760F4800889F
:1029F0006876000AA8763888E076000A207738885A
:102A00006877000AA877204606F078FE0449084A4D
:102A1000491C012007F064F809B0F0BD55A700007B
:102A200012800000A69A01005A4A0100564A01008D
:102A30001DA80000F3B583B03422FE49FE48FEF71E
:102A40000FFCFD4D03986871000AA87104982C468C
:102A50002E300290E071000A20722A266E72002049
:102A6000A872E6722073F548F64F0088E075000AF8
:102A70002076F34800886876000AA8763888E076E1
:102A8000000A207738886877000AA877204606F081
:102A900035FEED4AED49012007F022F8ECA20221B3
:102AA000EA4807F07BF8E349342234312046FEF748
:102AB000D7FB0398303001906871000AA871029822
:102AC000E071000A20726E72300AA872E672300A53
:102AD0002073DA480088E075000A2076D84800881C
:102AE0006876000AA8763888E076000A2077388869
:102AF0006877000AA877204606F000FED349D54A39
:102B0000491C012006F0ECFFD048D3A20221401C52
:102B100007F044F8C749342268312046FEF7A0FB8D
:102B20000398603000906871000AA8710298E07103
:102B3000000A20726E72300AA872E672300A2073A0
:102B4000BE480088E075000A2076BD480088687697
:102B5000000AA8763888E076000A207738886877F7
:102B6000000AA877204606F0C9FDB849BB4A891C6F
:102B7000012006F0B5FFB548B9A20221801C07F07C
:102B80000DF83422B7492046FEF76AFB03989030CF
:102B90006871000AA8710298E071000A20726E72D2
:102BA000300AA872E672300A2073A4480088E075E3
:102BB000000A2076A24800886876000AA87638883D
:102BC000E076000A207738886877000AA8772046E0
:102BD00006F094FD9D49A44A0A31012006F080FFC9
:102BE0009A48A2A202210A3006F0D8FF9149342265
:102BF0009C312046FEF734FB03986871000AA871E7
:102C000004985A300290E071000A20726E72300A05
:102C1000A872E672300A207388480088E075000ABE
:102C20002076874800886876000AA8763888E0769B
:102C3000000A207738886877000AA877204606F0CF
:102C40005DFD82498A4AC91C012006F049FF7F4880
:102C500088A20221C01C06F0A1FF76493422D0319F
:102C60002046FEF7FDFA01986871000AA8710298E3
:102C7000E071000A20726E72300AA872E672300AA1
:102C800020736E480088E075000A20766C48008842
:102C90006876000AA8763888E076000A20773888B7
:102CA0006877000AA877204606F028FD6749724A2F
:102CB000091D012006F014FF644870A20221001DC6
:102CC00006F06CFF34226E492046FEF7C9FA0098E0
:102CD0006871000AA8710298E071000A20726E7291
:102CE000300AA872E672300A207354480088E075F2
:102CF000000A2076524800886876000AA87638884C
:102D0000E076000A207738886877000AA87720469E
:102D100006F0F4FC4D495B4A491D012006F0E0FE37
:102D20004A4859A20221401D06F038FF5449342276
:102D300034312046FEF794FA03986871000AA871AE
:102D4000049886300290E071000A20726E72300A98
:102D5000A872E672300A207338480088E075000ACD
:102D60002076374800886876000AA8763888E076AA
:102D7000000A207738886877000AA877204606F08E
:102D8000BDFC3249414A891D012006F0A9FE2F48A9
:102D90003FA20221801D06F001FF3949342268312B
:102DA0002046FEF75DFA01986871000AA871029842
:102DB000E071000A20726E72300AA872E672300A60
:102DC00020731E480088E075000A20761C480088A1
:102DD0006876000AA8763888E076000A2077388876
:102DE0006877000AA877204606F088FC1749294A28
:102DF000C91D012006F074FE144827A20221C01D3F
:102E000006F0CCFE1749342268392046FEF728FA2E
:102E100000986871000AA8710298E071000A207297
:102E20006E72300AA872E672300A20730348008876
:102E3000E07533E09E9C0100623A00205A4A01008E
:102E4000564A0100584A0100419F000008800000D6
:102E5000310000003DA000003200000039A1000058
:102E600033000000A69E0100E5A800002E0000002F
:102E700035A2000034000000D5A20000350000009B
:102E8000A29D0100D1A3000036000000CDA40000E7
:102E900037000000C9A5000038000000000A2076B5
:102EA000284800886876000AA8763888E076000A04
:102EB000207738886877000AA877204606F01EFC3D
:102EC000214A2249012006F00BFE21A202211F48BF
:102ED00006F064FE34221F492046FEF7C1F903982C
:102EE0006871000AA8710498B230E071000A20727B
:102EF0006E72300AA872E672300A20731648008893
:102F0000E075000A20760F4800886876000AA876E7
:102F10003888E076000A207738886877000AA87732
:102F2000204606F0EBFB094C0C4A641C21460120AC
:102F300006F0D6FD0AA20221204606F02FFE05B0BB
:102F4000F0BD0000564A010069A600001080000094
:102F500039000000729E01005A4A0100999E00004B
:102F600030000000F8B506463C480188BE2901D271
:102F70003BA003E04088DC2804D240A006F0C4FB5C
:102F80000120F8BD444AC90389180D0C4349C00308
:102F90004018040C262242494248FEF761F9414894
:102FA000290A45718171C471210A01723E48018864
:102FB0003C488173090AC17306F0A0FB38493948BF
:102FC000322226312630FEF74BF93648290A2630C0
:102FD000457181710146CC71220A0A72BE22427289
:102FE000002282723020C872304F2E480A7339880E
:102FF00048300170090A41702D480188294826305F
:103000008175090AC1752B4909880176090A41763B
:1030100006F074FB2848002E1DD03A880021521E6D
:1030200004E0735C002B03D0491C89B29142F8DBA9
:10303000324606F0B3FD2146284600F0FDF8214651
:103040002846FFF785FA21462846FFF701F803F0E6
:1030500045FC0020F8BD08A20121EAE73800002065
:103060006C636420776964746820696E7375666642
:10307000696369656E740D0A000000006C6364206A
:1030800068656967687420696E73756666696369E7
:10309000656E740D0A0000000000A1FF000092FFA1
:1030A000DC9601007E390020544A0100524A01009A
:1030B000564A0100584A010001800000F8B5064652
:1030C00039480188BA2901D238A003E04088DC28B9
:1030D00004D23DA006F018FB0120F8BD414AC90307
:1030E00089180D0C4049C0034018040C26223F49A2
:1030F0003F48FEF7B5F83E48290A45718171C47111
:10310000210A01723B48018839488173090AC17359
:1031100006F0F4FA35493648322226312630FEF7D9
:103120009FF83348290A2630457181710146CC71D8
:10313000220A0A72BA224272002282722020C872C7
:103140002D4F2B480A73398848300170090A4170A5
:103150002A480188264826308175090AC175284900
:1031600009880176090A417606F0C8FA2548002E3A
:1031700017D03A880021521E04E0735C002B03D064
:10318000491C89B29142F8DB324606F007FD214620
:103190002846FFF74FFC21462846FFF70DF900208F
:1031A000F8BD08A20121F0E7380000206C6364201C
:1031B000776964746820696E7375666669636965AA
:1031C0006E740D0A000000006C6364206865696716
:1031D000687420696E73756666696369656E740DDF
:1031E0000A0000000000A3FF000092FF469C0100BF
:1031F0000A3A0020544A0100524A0100564A01008E
:10320000584A01000180000070B50A4C0025206872
:1032100000280CD0014608208847050007D0E06848
:10322000002804D003460822002128469847284653
:1032300070BD00000C4A0100F8B50F460646322268
:10324000A249A348FEF70CF8A148310A46718171E2
:1032500034370146CF713A0A0A723E224272002286
:1032600082721620C8729B480A730188984881753B
:10327000090AC175984909880176090A417606F05C
:103280003DFA96A20121964806F088FC8F499048A5
:10329000342232313230FDF7E3FF8D4D3046323586
:1032A00040306871000AA8712C46E771380A207214
:1032B000162068720020A8721620E0720020207389
:1032C00088480088E075000A207682480088687681
:1032D000000AA87680480088E076000A20777E48B9
:1032E00000886877000AA877204606F007FA7C482D
:1032F0007AA20121401C06F051FC79497A4A491C06
:10330000012006F0EDFB7149342266312046FDF7BD
:10331000A7FF30465A306871000AA871E771380A71
:103320002072162068720020A8721620E072002019
:1033300020736C480088E075000A20766548008894
:103340006876000AA87664480088E076000A20774C
:10335000614800886877000AA877204606F0CEF911
:103360005F485EA20121801C06F018FC5C495F4AA0
:10337000891C012006F0B4FB544934229A312046BE
:10338000FDF76EFF304674306871000AA871E7716E
:10339000380A2072162068720020A8721620E07287
:1033A000002020734F480088E075000A20764948C5
:1033B00000886876000AA87647480088E076000A08
:1033C0002077454800886877000AA877204606F0ED
:1033D00095F9434841A20121C01C06F0DFFB40499A
:1033E000434AC91C012006F07BFB38493422CE3108
:1033F0002046FDF735FF30468E306871000AA8710F
:10340000E771380A2072162068720020A872162010
:10341000E0720020207333480088E075000A2076AF
:103420002C4800886876000AA8762B480088E07649
:10343000000A2077284800886877000AA877204685
:1034400006F05CF926482BA20121001D06F0A6FB20
:103450002349294A091D012006F042FB342227494D
:103460002046FDF7FDFEA8366E71300AA871E7719F
:10347000380A2072162068720020A8721620E072A6
:103480000020207317480088E075000A2076114854
:1034900000886876000AA8760F480088E076000A5F
:1034A00020770D4800886877000AA877204606F044
:1034B00025F90B4C12A2641D0121204606F06EFB7B
:1034C000104A2146012006F00BFBF8BD349701009D
:1034D000A4390020544A0100584A010000000000AD
:1034E000028000005A4A01001D1B0000651B0000FD
:1034F000AD1B00003C00000065BA000036980100DA
:103500003E00000059BA000010B50121002000F073
:1035100097F9194C002806D02068002800D0804771
:10352000002000F05FF90121084600F089F9002829
:1035300006D06068002800D08047012000F052F9D2
:103540000121022000F07CF9002806D0A0680028A4
:1035500000D08047022000F045F90121032000F04F
:103560006FF9002806D0E068002800D080470320CB
:1035700000F038F910BD000064020020F0B58DB0F5
:10358000142005F0C1FB059037497D2040038B686E
:1035900014220599984700246E460598A50028181E
:1035A000401CFDF797FE05990002495D641C084325
:1035B000E4B27051052CF0D368460B90002084468D
:1035C00002200A906046C100294C0B98A6460B18B1
:1035D000284C196858682568099565680895A56894
:1035E0000795E468214A06940024079D0E01751989
:1035F0008E187540069E4F09BE197540401B099DE7
:103600000601751986187540089E4709BE19754050
:10361000491B7546521B641C202CE6D31960586068
:103620006046401C80B20A9984468842CAD30199F8
:103630000498114C884210D010A005F0EBFA01F06C
:103640004BFF64225F21104603F0AEFE00F076F8D7
:103650000020207005F0CAF8FCE7012020700598D2
:1036600005F020FB0DB0F0BD204A01002037EFC669
:10367000B979379E6C0000207D000020BDE2C3DCDC
:10368000CAA7B0DC2CBDF8C8EBCBC0D1ADBBB70A24
:1036900000000000064B05E019460A46491E89B2A3
:1036A000002AFAD10146401E80B20029F4D17047A9
:1036B000DF2E000010B50A4806F020F80848263032
:1036C00006F01CF80648413006F018F805490020BD
:1036D0000870054A0549032006F002FA002010BDD3
:1036E000E86D010000000020F13600000315000025
:1036F00010B5094900204870084801780848002999
:1037000001D0002104E0074A03491278091D895CB1
:1037100006F016FA002010BD8E00002002000020E6
:10372000021500000100002010B50021024A0846E1
:1037300006F07AF910BD0000B536000038B51F4814
:10374000FCF7D4FC1F25ED021D4C00956088410854
:1037500020880B46400802463C3932383C3332322E
:1037600089B280B201F05CFE009560884108208833
:103770000B4640080246323A3C393C3392B289B299
:10378000323001F04DFE208861884E38C20F10188B
:1037900049085039C00389B2000C0AA205F0D0F9DB
:1037A000208861885A38C20F10184908C003000CDD
:1037B00008A2503105F0C4F938BD0000FFFF000039
:1037C00038000020556E61626C6520746F2075733F
:1037D00065000000506C65617365206163746976F3
:1037E0006174650010B504000AD0012C08D0022CC9
:1037F00006D0032C04D0FF21903104A005F022FD57
:1038000001200E49A040886310BD000054444F5F62
:10381000593678784253505C59365F53746450651A
:10382000726970685F4472697665725C7372635C1A
:1038300059365F646D612E6300000000000305408F
:1038400070B50D4604000AD0012C08D0022C06D019
:10385000032C04D0FF21763106A005F0F3FC0122F1
:103860001048A240002D02D0806A104070BD006850
:10387000FBE7000054444F5F593678784253505C60
:1038800059365F5374645065726970685F44726939
:103890007665725C7372635C59365F646D612E632A
:1038A00000000000C0020540F0B51C46074608199C
:1038B00089B015460E4681B2039078191C4A0490CF
:1038C000126880B290470398194A81B2781B03901E
:1038D000126880B29047701981B205903819144A65
:1038E0000790126880B29047701B81B20690104A10
:1038F0000798126880B29047002C16D00C4D04989F
:10390000361B2A68B1B280B2904703982A68B1B2D8
:1039100080B2904705983C1B81B22A68A0B29047BC
:1039200006982A6881B2A0B2904709B0F0BD0000A5
:1039300040110000FFB585B0FF32FF3369326933B3
:1039400000260390F6430127FF2014B21DB2693010
:1039500005E0FF3C693CFF3D693D24B22DB2844245
:10396000F7DA002D6CDD5A2C11DA002C00DA002475
:103970005A2D01DA284600E05A2083B20E980196AB
:103980000290A2B200970699039800F05BF85A3DA6
:103990005A3C2DB224B2002D52DD5A2C14DA002CE0
:1039A00000DA00245A2D01DA284600E05A200E9948
:1039B00002915A210A1B081A93B2019682B200960C
:1039C0000699039800F03EF85A3D5A3C2DB224B2B5
:1039D000002D35DD5A2C11DA002C00DA00245A2D86
:1039E00001DA284600E05A2083B20E98019702902F
:1039F000A2B200960699039800F024F85A3D5A3C6A
:103A00002DB224B2002D1BDD5A2C14DA002C00DA62
:103A100000245A2D01DA284600E05A200E9902911E
:103A20005A210A1B081A93B2019782B2009706998D
:103A3000039800F007F85A3D5A3C2DB224B290E7A3
:103A400009B0F0BDFFB597B00F46219C2298FDF755
:103A500003FE0022844BFDF725FD0022D243FDF733
:103A6000D3FD05460E4638460491FDF709FE07468C
:103A700033462A460291FDF7B9FDFDF775FE06466D
:103A80002A463846049B0299FDF70CFDFDF76CFEB3
:103A900005461998754A8000115806911A998900AF
:103AA0005758734A105804905058314603900846AE
:103AB000FDF77CFCFDF7F2FD294608900846FDF76E
:103AC00075FCFDF7EBFD079030460699FDF76EFC9F
:103AD0000A9028460699FDF769FC0C903946304655
:103AE000FDF764FC0B9039462846FDF75FFC0D900E
:103AF00030460499FDF75AFC0E9028460499FDF7CC
:103B000055FC0F9030460399FDF750FC1090284665
:103B10000399FDF74BFC12900A98FDF711FE554AE8
:103B2000554BFDF7BFFCFDF7E7FD05460D98FDF78A
:103B3000B5FD524E119010AAF188D38B0593CA1A85
:103B40007188C91A012C02D0631C07D00CE0824294
:103B500000DA1046A94207DD0D4605E0AA4200DA68
:103B60001546814200DD084600210646139110A843
:103B70001491878B74E0314613A8089AFEF73AF83F
:103B8000314614A8079AFEF735F83046FDF752FD86
:103B900015900C99FDF704FE2CD20A990C98FDF7AC
:103BA000FFFD01D10A9816E00A990C98FDF7F6FB83
:103BB00004900E990F98FDF7F1FB0499FDF733FC83
:103BC00006900A991598FDF7E9FB0699FDF7EEFBBB
:103BD0000E99FDF792FBFDF761FD03900B99159887
:103BE000FDF7E8FD22D20B990D98FDF7D9FD03D121
:103BF00011981CE01498F0E70B990D98FDF7CEFB97
:103C0000099010991298FDF7C9FB0999FDF70BFC73
:103C100009900B991598FDF7C1FB0999FDF7C6FBB3
:103C20001099FDF76AFBFDF739FD00E01398209924
:103C30000029214608DD059A71438918039A89B243
:103C4000BA1892B2381807E0059A71438918381AE1
:103C500082B2039889B2381A80B200F0A1FA761EB7
:103C6000AE4288DA1BB0F0BD0000F83F548001007E
:103C7000F8850100E90B21E7FDFFEF3F300200204E
:103C8000FFB551488DB08668C0681F464208684637
:103C9000058F10462946FDF7B9FA04466846418F5C
:103CA0000C97828E02840A92C28E428400200B906E
:103CB000A14201D3081B01E00C4680E00790294691
:103CC00018986143012801D000231CE000203E4ADF
:103CD00003E093883380401CB61C8842F9D314E07B
:103CE000179A0B985043420016981218002004E0CF
:103CF00017883780401C921CB61C8542F8D80B9858
:103D0000401C5B1C0B90A342EAD32F480023CE0833
:103D1000826833E00C990C9F09787F1C0C97CF09BF
:103D200001D0C78817808F09921CFF0701D0C78870
:103D300017804F09921CFF0701D0C78817800F0911
:103D4000921CFF0701D0C7881780CF08921CFF077D
:103D500001D0C78817808F08921CFF0701D0C78841
:103D600017804F08921CFF0701D0C7881780921C4C
:103D7000C90701D0C1881180921C5B1C9E42C9D822
:103D8000866868460A998180418C0991C180199999
:103D9000018144811A9800900C48294647693046B1
:103DA000029B019AB8470999684609194184079806
:103DB000002806D0A04201D3001B7FE70446002064
:103DC0007CE711B0F0BD0000380000204011000079
:103DD000FFB5654889B08468C0681E4642086846D9
:103DE000008D039001461046FDF710FA054668461F
:103DF000408D00906846818C01820591C18C418282
:103E00001498012814D15848584982880A80C288D9
:103E1000CA800127B8003818C2B253488188C088C8
:103E200001F00CF97A0051497F1C8852032FF1DB15
:103E30000020079000988DE008900398149968433B
:103E4000012901D0002330E00022830816E03178F8
:103E5000521C880947004548C75B27808F06BF0F63
:103E60007F00C75B67800F07BF0F7F00C75B8907B5
:103E7000A780490F405AE0800834761C9342E6D868
:103E80004DE0139A079951434A00129952180021A4
:103E900004E017882780491C921CA41C039F8F42B2
:103EA000F7D80799491C5B1C0791AB42E9D32E490F
:103EB00000228C688008009201902DE03778761CF3
:103EC000B8098100421828482188C08801F0B6F856
:103ED0002080B806800F8100421823486188C0887E
:103EE00001F0ACF860803807800F810042181E484E
:103EF000A188C08801F0A2F8A080B807800F8100D7
:103F000042181948E188C08801F098F8E0800098CC
:103F1000401C00900198083400998842CED812487D
:103F20006946846805988880488A0690C8801598F4
:103F300008814D81169800900D48029B47692046E4
:103F4000019A0399B847069869464019488208982B
:103F5000002806D0A84201D3401B6DE7054600208B
:103F60006AE70DB0F0BD00003800002038020020E4
:103F700040110000FFB5524889B08568C0681E46F0
:103F800042086846008D039001461046FDF73EF951
:103F900004466846408D00906846818C01820691F7
:103FA000C18C41821498012812D145484549828824
:103FB0000A80C288CA8301274148FAB28188C08832
:103FC00001F03CF87A003F497F1C88520F2FF3DB49
:103FD00000200890009869E00790039A14986243C3
:103FE000012801D0002326E00021364853080BE0C9
:103FF0003278491C17097F00C75B12072F80D20E49
:10400000825A6A802D1D761C8B42F1D833E01399B9
:1040100008984843410012980918002004E00F88CE
:104020002F80401C891CAD1C039F8742F7D808983D
:10403000401C5B1C0890A342E9D32148002751088B
:104040008568019114E03078009002091C482988A5
:10405000C088761C00F0F2FF28800098698802076B
:104060001748120FC08800F0E9FF68802D1D7F1CE3
:104070000198B842E7D81248694685680698888052
:10408000488A0590C880159808814C811698009040
:104090000D48029B47692846019A0399B84705983D
:1040A0006946001948820798002806D0A04201D32B
:1040B000001B91E7044600208EE70DB0F0BD000024
:1040C000380000205E39002040110000F3B50C4696
:1040D000084660434908401885B086B26846C08AE1
:1040E0000390001B00B2029003982C49001900B203
:1040F0000190CA88824202DA0620085E0190029886
:10410000002801DA002002906846808A00252746B0
:1041100000901CE00398411B0298814215DB019836
:10412000814212DC284668433A467A438218B242FA
:1041300002DD7F1EBFB2F7E7009889B2C01982B2D4
:104140000098C01B80B200F02BF86D1CADB2A542E8
:10415000E0D3002527461CE00398411902988142CC
:1041600015DB0198814212DC284668433A467A43BF
:104170008218B24202DD7F1EBFB2F7E7009889B213
:10418000C01982B20098C01B80B200F009F86D1C03
:10419000ADB2A542E0D307B0F0BD00003002002070
:1041A000F8B5074616460D46BA4267D3344C284642
:1041B0002168FDF741F86169884206D002F034F9C0
:1041C00028462168FDF738F860612D4801683846B7
:1041D0000C46FDF731F885B221463046FDF72CF844
:1041E00081B227488069854201DA254885612448E3
:1041F000C269914200DDC1612A46C568AA4202DA5D
:104200002A46624397B20269914203DD521C62431F
:10421000521E96B2BE4231D321463846FDF70CF805
:10422000401B00B2009021463046FDF705F8401BC8
:1042300001B200988C46081A401C01B210488268EE
:1042400000981018012907D0009A03785219521CBF
:104250006243D21B9A1803E00278F11B0BE012199B
:104260000270401C491E09B202780129F7DC614640
:1042700049196143711A491C51180170F8BD0000B9
:104280000C020020F8B5074624481500C4880E46E5
:1042900042D04188B1423FDB0088B8423CDB204A33
:1042A0000F2D02D3B1B2B8B232E01D4AB1B252689A
:1042B000B8B2904701463F235B0120461840E30611
:1042C000DB0E6B439C46E20A1023D2025B1B6A435F
:1042D0006843CD0ADBB2ED025D43AD183F225201C7
:1042E0000A40C906C90E5A43594310181F232A1100
:1042F000DB021A403F23614400115B011840C905ED
:10430000C90E101840180549054AC880B1B2B8B2A4
:10431000126890470148C480F8BD000038000020B2
:1043200040110000F7B50C4606461D218AB0490130
:10433000F748FCF7BDFF0021F64D0846A9612FE0C4
:10434000725C1346303B092B01D8002218E013465B
:10435000413B192B13D9202A11D0242A0FD0252A0A
:104360000DD02A2A0BD02B2A09D02D2A07D02E2A8D
:1043700005D02F2A03D03A2A01D0022200E00122E0
:10438000002901D1E44B1A70E34B1F5C974201D026
:10439000401C1A54DE4A8700D3595B1CD351491C78
:1043A000A142CDDB401C0024A8612EE1DA4A135D56
:1043B000002B02D0012B05D026E1101940780128EE
:1043C00004D021E1101940780028F5D1A000D0498F
:1043D00004900690095818460C9A00F085FD07468F
:1043E000CB4906984018039001904168CA480019CB
:1043F000079040780C9A00F077FD3F18C449069862
:104400000C9A0958019840680918012000F06CFDC9
:1044100000908742D0DD012C25DB07982038C07F33
:10442000022820D10398BA4980380690C26F0498B8
:104430000858111802200C9A00F056FD0746039800
:104440000C9A41680798407800F04EFD38180190AA
:1044500006980C9AC16F022000F046FD00994118A1
:104460000198814201DA00200190A869801E8442EF
:104470001FDA0798A84A807802281AD1A44804991C
:104480004158105D0C9A00F02FFD074603980C9AD6
:10449000416880680918022000F026FD3F18039843
:1044A0000C9A8168022000F01FFD00994018B84264
:1044B00000DA00270198002805D0002F06D0B84266
:1044C00004DB012004E0002F04D110E00020C043F1
:1044D000401C16D0079802214170039841688068FB
:1044E000091803984160A969A01C491E2CE0A8691D
:1044F0008446801E844244DA07988078012827D0B9
:104500003FE00398824A04998038C36F5158591884
:10451000C167A9692046491E09E07F4A13185B78E4
:1045200013547B4A83009F187F68D750401C8842F1
:10453000F3DB0BE0784A13185B781354744A83005A
:104540009F187F68D750401C8842F3DBA86958E069
:10455000039841688068091803984160A11C60466F
:10456000401E09E06C4A53185B785354684A8B002C
:104570009F187F68D750491C8142F3DB6046401E7C
:10458000A861654B01201855614A04981158039899
:104590004068091804981150A969601C8C46491E8E
:1045A00009E05D4A13185B781354594A83009F1839
:1045B0007F68D750401C8842F3DB6046401E84462B
:1045C000A861012C21DB07982038C07F01281CD16D
:1045D00003984F4A04998038C36F51585918C167DE
:1045E00060462146401E09E04B4A53185B785354FD
:1045F000474A8B009F187F68D750491C8142F3DBE4
:104600006046401EA86100E0641CA869401E844208
:1046100000DACBE60C98002480000790B3E0A000FD
:104620003B490390009009583B480C9A005D00F00C
:104630005BFC0746364900980C9A4018019004909C
:104640004168354800190890407800F04DFC3F184B
:104650002F4900980C9A09580498406809180220BC
:1046600000F042FC0146012C09DB08982038C07F8D
:10467000022804D12948079A8058091A091FA869F5
:104680008446801E844208DA08988078022804D183
:10469000224B079A9858091A091F8F4272DD012C84
:1046A00020DB08982038C07F02281BD1019B184AC4
:1046B0000398803BD96F10580818D8676046214688
:1046C000401E09E0144A53185B785354104A8B007B
:1046D0009F187F68D750491C8142F3DB6046401E1B
:1046E000641EA861A8698446801E844227DA0A4FA6
:1046F00038198078022822D1054BA000C0188268A2
:10470000416889184160A11C6046401E12E000000B
:10471000F8260020D4000020B53600205476010091
:10472000844A53185B785354834A8B009F187F68E0
:10473000D750491C8142F3DB6046401EA8617D4F83
:10474000022038557C48A1000B1842585B68D218EB
:104750004250AA69611C9446521E09E075484318EC
:104760005B78435474488B001F187F68C750491CFE
:104770009142F3DB6046401EA861012C03DB641EFE
:1047800001E0FFE7641CA869401E844200DA46E7A6
:1047900068480024E821E830EC60FCF789FD00203F
:1047A000A5E06449009A895C002914D001295FD0F2
:1047B00004221146614D01F0CBFEE860604A079982
:1047C000525800998F005C49C95B89B201F0C0FE64
:1047D000E8600025A0E004220121584D01F0B8FE58
:1047E000E860574A0799183A525800998F00524981
:1047F000C95B89B201F0ACFEE860002531E0811EA2
:10480000A94211DD60198119305C8A78642330383F
:104810005843121848780A21484321210901401AB7
:10482000101881B20A2215E0A9420BD16019811932
:10483000305C0A223038497850433038081881B249
:10484000072207E0401EA8420AD16019305C3038C8
:1048500081B204223948C06801F07AFE3749C86045
:10486000ED1C3548C059A842C9DC3348C0593BE06B
:1048700004220221314D01F06BFEE860304A0799B5
:104880000C3A525800992C4F89000591795A89B2F7
:1048900001F05EFEE86000251EE0401EA8420FDD2C
:1048A00060190490305CFDF709F9074604982D2142
:1048B00080194F434078FDF701F939180B2205E0C4
:1048C0006019305CFDF7FAF8014606221B4FF868C4
:1048D00001F03EFEAD1CF860174905980858A84243
:1048E000DBDC15480599405804190098401C134B0F
:1048F00000909969884214DAD868411C00D050E7CA
:1049000016E06019315C0D480822C06801F020FEF5
:1049100001460A486D1CC1600748C059A842F0DC36
:10492000A3E70648C068401C02D001200DB0F0BDCE
:104930000020FBE7B5360020F8260020D400002038
:104940005476010070B521492148FCF7B1FC01F013
:1049500025FF01F02FFE1F4EB068401C18D1B0603B
:1049600002F0ACF9B06801F08BFEFDF7BDF904462A
:104970000125284602F0A2F9284601F081FEFDF744
:10498000B3F9A04201DA0446B5606D1C072DF0DDD5
:10499000B06802F093F9B06801F072FE00200C4B91
:1049A0001125F2690EE03526044600217443E4180F
:1049B00005E0665C2E4000D001266654491C9142F9
:1049C000F7DB401C9042EEDB70BD0000F90A0000EE
:1049D000982A0020D400002070B5044609480D46EE
:1049E000844206D00848844203D0084908A004F055
:1049F00029FC002D04D11121490105A004F022FC5D
:104A0000A56070BD00000240000003401F020000CE
:104A100054444F5F593678784253505C59365F534F
:104A200074645065726970685F4472697665725C1F
:104A30007372635C59365F6770696F2E63000000A4
:104A400070B5154B1824984212D1144D00200B4616
:104A5000C340DB07DB0F07D083005B191E68A6434A
:104A60001E601E6816431E60401C2028EFD370BDD8
:104A70000A4D002080350B46C340DB07DB0F07D013
:104A800083005B191E68A6431E601E6816431E60E5
:104A9000401C2028EFD370BD0000024000100040F1
:104AA00070B5394E0C460546B04206D037488542AF
:104AB00003D0552136A004F0C5FB2079002808D189
:104AC0006079012805D0002803D0582130A004F0D7
:104AD000B9FB2068002803D15A212DA004F0B2FBB5
:104AE0002179002911D001290FD002290DD00329E5
:104AF0000BD0042909D0052907D0062905D007299C
:104B000003D05B2122A004F09DFBB5421DD12C4AAD
:104B100000202168C140C907C90F09D08100891848
:104B20000B68DB08DB000B600B6825792B430B60FF
:104B3000401C2028EDD32079002803D16179214839
:104B40001DE0416070BD816070BD1D4A0020803253
:104B50002168C140C907C90F09D0810089180B68B5
:104B6000DB08DB000B600B6825792B430B60401CD6
:104B70002028EDD320790028E6D161791248012957
:104B80002168E0D1DDE700000000024000000340A2
:104B900054444F5F593678784253505C59365F53CE
:104BA00074645065726970685F4472697665725C9E
:104BB0007372635C59365F6770696F2E6300000023
:104BC00000100040008002400080034070B50546A0
:104BD000394800260C46854207D03848854204D023
:104BE000FF21F83136A004F02DFB012C5DD0022C02
:104BF0005BD0042C59D0082C57D0102C55D0202C29
:104C000053D0402C51D0802C4FD0E01FF9384CD0DD
:104C1000FF38013849D001208002844245D040004D
:104C2000844242D0400084423FD0400084423CD085
:104C30004000844239D04000844236D04000844253
:104C400033D04000844230D0400084422DD0400018
:104C500084422AD04000844227D04000844224D09D
:104C60004000844221D0400084421ED04000844253
:104C70001BD04000844218D04000844215D0400030
:104C8000844212D0400084420FD0400084420CD0B5
:104C90004000844209D04000844206D0601C04D009
:104CA000FF21F93106A004F0CDFA2868204200D097
:104CB0000126304670BD00000000024000000340A5
:104CC00054444F5F593678784253505C59365F539D
:104CD00074645065726970685F4472697665725C6D
:104CE0007372635C59365F6770696F2E63000000F2
:104CF00070B5044609480D46844206D008488442EF
:104D000003D0084908A004F09DFA002D04D1212108
:104D1000090105A004F096FA656070BD000002402C
:104D2000000003400F02000054444F5F593678786A
:104D30004253505C59365F537464506572697068B1
:104D40005F4472697665725C7372635C59365F6743
:104D500070696F2E63000000F8B51A4F15460C46B7
:104D60000646B84207D01848864204D0FF21993140
:104D700016A004F067FA002C04D1FF219A3113A089
:104D800004F060FA012D06D0002D04D0FF219B31E4
:104D90000EA004F057FA00222146304600F032F807
:104DA00016481749012D05D0002D02D1BE4207D16A
:104DB0008460F8BDBE4201D14460F8BD4C60F8BDCE
:104DC0008C60F8BD000002400000034054444F5F77
:104DD000593678784253505C59365F537464506545
:104DE000726970685F4472697665725C7372635C45
:104DF00059365F6770696F2E6300000000800240C3
:104E000000800340F8B5294F14460D460646B842C7
:104E100006D02748864203D0AC2126A004F012FA1F
:104E2000002D03D1AD2123A004F00CFA002C11D0E9
:104E3000012C0FD0022C0DD0032C0BD0042C09D048
:104E4000052C07D0062C05D0072C03D0AE2119A0C5
:104E500004F0F8F9BE4213D1224A00202946C1408D
:104E6000C907C90F08D0810089180B68DB08DB006F
:104E70000B600B6823430B60401C2028EED3F8BD69
:104E8000184A002080322946C140C907C90F08D0FE
:104E9000810089180B68DB08DB000B600B6823437B
:104EA0000B60401C2028EED3F8BD0000000002403B
:104EB0000000034054444F5F593678784253505CA9
:104EC00059365F5374645065726970685F447269E3
:104ED0007665725C7372635C59365F6770696F2EBA
:104EE000630000000010004010B594000B4600283D
:104EF00005D0012816D014480159D80020E003211C
:104F00001846FCF799F90A2250430F4A001D183A37
:104F100012598018012903D0022900D1C01D10BDEB
:104F2000001D10BD08480C380259D80FC018411098
:104F30000B246143511840084000181A06225043C0
:104F4000001D081810BD000054760100F7B51B289D
:104F500001DB022404E00A2801DB012400E0002434
:104F6000124D134E224602990198FFF7DBF90028F3
:104F700001D0002C04D0641C022CF3DD0020FEBD07
:104F8000EA682968D21DD7174B007F0F0120B91896
:104F9000CA102C274743BF19FF18BF889742EEDA83
:104FA000401C0928F5DD641CDCE70000D40000206B
:104FB00084720100F7B5054684B000200090059882
:104FC000144607197F1E00982DE02878002825D068
:104FD00017490026085C0290A00001900FE01549D7
:104FE00001980858815D02980818FF21FCF70EF916
:104FF000114AA8194078515C4840A855761CA64231
:10500000EDDB204603E0291849782954401C8742EB
:10501000F9DC05E0291849782954401C8742F9DC5D
:105020000098401C009005998842CEDB07B0F0BD87
:105030003C750100F40000203C74010070B504468A
:10504000002A26D00F2A23D2E50A3F235B01E4067B
:10505000ED021840E40E5543504354431026B21A53
:10506000CE0AD2B2F602564376190D461D4055437C
:10507000C906C90E51430A1928181F243111E40228
:10508000001121401840D205D20E0818801880B2B5
:1050900070BD084670BD0000F0B5044693B0401CDA
:1050A0000A90417900790B0203430A980793417AE9
:1050B000007A090201435818401E80B20590207AF8
:1050C000E279000210430690227BE57A12022A431D
:1050D00085186D1EADB20D956D462B816881E07B04
:1050E000E71C002804D0012805D0022805D006E0DE
:1050F000921E90B202E0500800E001200E90207C49
:10510000002804D0012804D0022804D006E00120A1
:1051100003E0480801E0491E88B2099001262046B4
:1051200020300490EFE07D4A002190680CE0099B5C
:10513000B34202D1E37CA57C01E0637D257D1B02A7
:105140002B430380801C491C7B7A3D7A1B022B4336
:105150008B42ECDA7148217E8568002913D03046F5
:10516000FCF754F800290ED1002006E0E17DA27D75
:10517000090211432980401CAD1C797A3A7A090250
:1051800011438142F2DA65488168607E00280ED0C2
:10519000059B079A00209A1A07E0E37DA57D1B0274
:1051A0002B4345004B53637E18188242F5DAE07CAE
:1051B000A27C000210430E9A520088525748806821
:1051C0000190002083E08000001926300C90FCF74D
:1051D00081F8855D0146701E1090085C85422AD9D1
:1051E00004994A790B79110219434843054615E0A1
:1051F000787A397A00020843411B0ED481420CDCD4
:105200000F9949000A19517F127F09021143420088
:10521000019812186800101A01806D1C0C98FCF798
:1052200059F8815D0498427903791002184341438B
:10523000A942DDDC48E085422AD20498417902790E
:1052400008021043454315E0787A397A0002084392
:10525000411B0ED481420CDC0F9949000A19517F81
:10526000127F090211434200019810186A00801A47
:1052700001806D1C0C98FCF72DF81099415C049886
:1052800042790379100218434143A942DCDC1BE058
:10529000291A04984279037910021843414313D123
:1052A0004543787A397A0002084385420CD8420097
:1052B000019869001018411A0F9840000219507F98
:1052C000127F0002104308800F98401CC0B20F905C
:1052D000617C814200D976E706990D98401A83B225
:1052E0000F480122056901990298A847A07B002870
:1052F00003D005986946801B02E069460889401C76
:10530000761C0881B6B20A98417A027A08021043E4
:10531000B04200D907E713B0F0BD0000380000200C
:105320004011000000B50B46020008D000F0A3FBBE
:10533000102806D0506843600020536000BD012053
:1053400000BD1360F8E7000010B501210024090733
:105350001C48FFF73BFC1C4900238A79002A06D031
:10536000012A09D0022A11D0032A25D122E00028DF
:1053700025D10120CB6007E000281DD1C868401C62
:10538000C86064281BD30220887118E0002803D06D
:1053900003248B710A4609E0C8680C4A401CC860A7
:1053A00090420CD3042403200A468871887801288F
:1053B00004D004E0002802D08B7100E093702046F6
:1053C00010BD000000000240000000201027000077
:1053D00070B50124084D2407002221462846FFF716
:1053E00011FD002221462846FFF7B6FC1022214677
:1053F0002846FFF725FB70BD000002403CB46B4619
:10540000188059809880D98004480199C468009810
:10541000A44602B030BC01236047000040110000E8
:10542000F0B5002487B003940294059427460494B1
:10543000994205D10C9C009404F0CEFB07B0F0BD5E
:10544000121A16B25A1A15B20022D243002E02DDE9
:105450000123039304E0002E02D073421EB2039294
:10546000002D02DD0122029204E0002D02D0029202
:105470006A4215B2AE4201DDB4B200E0ACB20190B6
:10548000601C00910690059821E00C9A0099019803
:10549000FFF7B4FF0498801980B20490A04207D9A6
:1054A000001B80B2049003990198401880B20190CB
:1054B000781987B2A74206D9381B87B2029900989B
:1054C000401880B200900598401C80B20590069963
:1054D0008842DAD9B2E7000010B500220221042088
:1054E00000F04CFA00F043FA0548016903208847B0
:1054F0000448C069804704490020087010BD0000BE
:105500001C110000401100007C00002010B5FE4C72
:10551000FE20A1688847A168EF208847A168EB209A
:105520008847216814208847A1688420884721681B
:1055300040208847A168852088472168FF20884748
:10554000A168862088472168FF208847A1688720B6
:1055500088472168FF208847A1688E2088472168F6
:10556000FF208847A1688F2088472168FF2088474F
:10557000A1688820884721680A208847A168892077
:105580008847216821208847A1688A2088472168A8
:1055900000208847A1688B208847216880208847A1
:1055A000A1688C208847216801208847A1688D2048
:1055B0008847216801208847A168B620884721686C
:1055C00000208847216820208847A1683620884726
:1055D000216808208847A1683A208847216855201B
:1055E0008847A1689020884721680820884721685B
:1055F00008208847216808208847216808208847B4
:10560000A168BD208847216806208847A168BC2082
:105610008847216800208847A168FF2088472168C3
:105620006020884721680120884721680420884736
:10563000A168C3208847216813208847A168C42037
:105640008847216813208847A168C92088472168B6
:1056500022208847A168BE208847216811208847FA
:10566000A168E120884721681020884721680E2022
:105670008847A168DF208847216821208847216862
:105680000C208847216802208847A168F0208847BD
:10569000216845208847216809208847216808201B
:1056A0008847216808208847216826208847216884
:1056B0002A208847A168F12088472168432088472D
:1056C0002168702088472168722088472168362029
:1056D000884721683720884721686F208847A1685C
:1056E000F22088472168452088472168092088479B
:1056F00021680820884721680820884721682620DB
:10570000884721682A208847A168F32088472168B4
:105710004320884721687020884721687220884785
:1057200021683620884721683720884721686F2004
:105730008847A168ED20884721681B208847216899
:105740000B208847A168AE208847216877208847CA
:10575000A168CD208847216863208847A168702010
:1057600088472168072088472168072088472168E3
:105770000420884721680E20884721680F20884729
:105780002168092088472168072088472168082068
:105790008847216803208847A168E8208847216856
:1057A00034208847A16862208847216818208847EC
:1057B00021680D2088472168712088472168ED20E5
:1057C00088472168702088472168702088472168B1
:1057D0001820884721680F20884721687120884752
:1057E0002168EF2088472168702088472168702051
:1057F0008847A16863208847216818208847216866
:10580000112088472168712088472168F120884746
:1058100021687020884721687020884721681820F7
:1058200088472168132088472168712088472168AC
:10583000F3208847216870208847216870208847B6
:10584000A16864208847216828208847216829208A
:1058500088472168F120884721680120884721680E
:10586000F120884721680020884721680720884761
:10587000A1686620884721683C208847216800206D
:1058800088472168CD20884721686720884721689C
:10589000452088472168452088472168102088478F
:1058A000216800208847216800208847216800205F
:1058B0008847A168672088472168002088472168B9
:1058C0003C208847216800208847216800208847BD
:1058D00021680020884721680120884721685420DA
:1058E000884721681020884721683220884721682E
:1058F00098208847A168742088472168102088472D
:1059000021686820884701E01C1100002168802080
:10591000884721680020884721680020884721683F
:105920004E208847216800208847A1689820884732
:1059300021683E208847216807208847A1683520D4
:105940008847216800208847A16821208847A168EE
:10595000112088477820FDF79DFEA16829208847FF
:105960000C20FDF797FEA1682C20884710BD10B5CC
:10597000FFF7CCFDFDF702FE10BD000030B589B089
:10598000002300930193090203AC02930EC46946FD
:105990000B76382107911F4988621F4C0322491456
:1059A0002046FFF72FFA032280212046FFF72AFA2C
:1059B000002210212046FFF725FA0122102120465F
:1059C000FFF7CAF910212046FFF792F9102000F0E6
:1059D000A1FC6946114800F0F5FA0022202120467A
:1059E000FFF710FA012220212046FFF7B5F9202108
:1059F0002046FFF77DF90A4DE4140022214628468F
:105A0000FFF700FA012221462846FFF7A5F96C604E
:105A100009B030BD8000004000000240001001408D
:105A20000000034070B50124084DA4020022214665
:105A30002846FFF7E7F9012221462846FFF78CF9AF
:105A400021462846FEF7C8FF70BD00000000034055
:105A500003490868C007FCD002484068704700004E
:105A60000051004000500040FF2101318805416194
:105A700081604160704700280BD00168002900D088
:105A800001214068002800D00120014301D02020DE
:105A9000704710207047000070B5044680780125DB
:105AA00000281FD0012806D0442112A003F0CAFB11
:105AB000A078002816D02078194982089200521840
:105AC00011688007C30EFF209840814360788007EB
:105AD000000E9840084310602078C006C00E854034
